{
  "contractName": "CoralAgroOcto",
  "abi": [
    {
      "inputs": [
        {
          "internalType": "address",
          "name": "marketplaceAddress",
          "type": "address"
        },
        {
          "internalType": "uint16",
          "name": "maxNftSupply",
          "type": "uint16"
        },
        {
          "internalType": "uint8",
          "name": "maxTeamSupply",
          "type": "uint8"
        }
      ],
      "stateMutability": "nonpayable",
      "type": "constructor"
    },
    {
      "anonymous": false,
      "inputs": [
        {
          "indexed": true,
          "internalType": "address",
          "name": "owner",
          "type": "address"
        },
        {
          "indexed": true,
          "internalType": "address",
          "name": "approved",
          "type": "address"
        },
        {
          "indexed": true,
          "internalType": "uint256",
          "name": "tokenId",
          "type": "uint256"
        }
      ],
      "name": "Approval",
      "type": "event"
    },
    {
      "anonymous": false,
      "inputs": [
        {
          "indexed": true,
          "internalType": "address",
          "name": "owner",
          "type": "address"
        },
        {
          "indexed": true,
          "internalType": "address",
          "name": "operator",
          "type": "address"
        },
        {
          "indexed": false,
          "internalType": "bool",
          "name": "approved",
          "type": "bool"
        }
      ],
      "name": "ApprovalForAll",
      "type": "event"
    },
    {
      "anonymous": false,
      "inputs": [
        {
          "indexed": true,
          "internalType": "address",
          "name": "previousOwner",
          "type": "address"
        },
        {
          "indexed": true,
          "internalType": "address",
          "name": "newOwner",
          "type": "address"
        }
      ],
      "name": "OwnershipTransferred",
      "type": "event"
    },
    {
      "anonymous": false,
      "inputs": [
        {
          "indexed": true,
          "internalType": "address",
          "name": "from",
          "type": "address"
        },
        {
          "indexed": true,
          "internalType": "address",
          "name": "to",
          "type": "address"
        },
        {
          "indexed": true,
          "internalType": "uint256",
          "name": "tokenId",
          "type": "uint256"
        }
      ],
      "name": "Transfer",
      "type": "event"
    },
    {
      "inputs": [],
      "name": "MAX_SUPPLY",
      "outputs": [
        {
          "internalType": "uint16",
          "name": "",
          "type": "uint16"
        }
      ],
      "stateMutability": "view",
      "type": "function",
      "constant": true
    },
    {
      "inputs": [],
      "name": "NFT_PRICE",
      "outputs": [
        {
          "internalType": "uint256",
          "name": "",
          "type": "uint256"
        }
      ],
      "stateMutability": "view",
      "type": "function",
      "constant": true
    },
    {
      "inputs": [],
      "name": "TEAM_SUPPLY",
      "outputs": [
        {
          "internalType": "uint8",
          "name": "",
          "type": "uint8"
        }
      ],
      "stateMutability": "view",
      "type": "function",
      "constant": true
    },
    {
      "inputs": [
        {
          "internalType": "string",
          "name": "",
          "type": "string"
        }
      ],
      "name": "_colorExists",
      "outputs": [
        {
          "internalType": "bool",
          "name": "",
          "type": "bool"
        }
      ],
      "stateMutability": "view",
      "type": "function",
      "constant": true
    },
    {
      "inputs": [
        {
          "internalType": "address",
          "name": "to",
          "type": "address"
        },
        {
          "internalType": "uint256",
          "name": "tokenId",
          "type": "uint256"
        }
      ],
      "name": "approve",
      "outputs": [],
      "stateMutability": "nonpayable",
      "type": "function"
    },
    {
      "inputs": [
        {
          "internalType": "address",
          "name": "owner",
          "type": "address"
        }
      ],
      "name": "balanceOf",
      "outputs": [
        {
          "internalType": "uint256",
          "name": "",
          "type": "uint256"
        }
      ],
      "stateMutability": "view",
      "type": "function",
      "constant": true
    },
    {
      "inputs": [
        {
          "internalType": "uint256",
          "name": "tokenId",
          "type": "uint256"
        }
      ],
      "name": "getApproved",
      "outputs": [
        {
          "internalType": "address",
          "name": "",
          "type": "address"
        }
      ],
      "stateMutability": "view",
      "type": "function",
      "constant": true
    },
    {
      "inputs": [
        {
          "internalType": "address",
          "name": "owner",
          "type": "address"
        },
        {
          "internalType": "address",
          "name": "operator",
          "type": "address"
        }
      ],
      "name": "isApprovedForAll",
      "outputs": [
        {
          "internalType": "bool",
          "name": "",
          "type": "bool"
        }
      ],
      "stateMutability": "view",
      "type": "function",
      "constant": true
    },
    {
      "inputs": [],
      "name": "name",
      "outputs": [
        {
          "internalType": "string",
          "name": "",
          "type": "string"
        }
      ],
      "stateMutability": "view",
      "type": "function",
      "constant": true
    },
    {
      "inputs": [],
      "name": "owner",
      "outputs": [
        {
          "internalType": "address",
          "name": "",
          "type": "address"
        }
      ],
      "stateMutability": "view",
      "type": "function",
      "constant": true
    },
    {
      "inputs": [
        {
          "internalType": "uint256",
          "name": "tokenId",
          "type": "uint256"
        }
      ],
      "name": "ownerOf",
      "outputs": [
        {
          "internalType": "address",
          "name": "",
          "type": "address"
        }
      ],
      "stateMutability": "view",
      "type": "function",
      "constant": true
    },
    {
      "inputs": [],
      "name": "renounceOwnership",
      "outputs": [],
      "stateMutability": "nonpayable",
      "type": "function"
    },
    {
      "inputs": [
        {
          "internalType": "address",
          "name": "from",
          "type": "address"
        },
        {
          "internalType": "address",
          "name": "to",
          "type": "address"
        },
        {
          "internalType": "uint256",
          "name": "tokenId",
          "type": "uint256"
        }
      ],
      "name": "safeTransferFrom",
      "outputs": [],
      "stateMutability": "nonpayable",
      "type": "function"
    },
    {
      "inputs": [
        {
          "internalType": "address",
          "name": "from",
          "type": "address"
        },
        {
          "internalType": "address",
          "name": "to",
          "type": "address"
        },
        {
          "internalType": "uint256",
          "name": "tokenId",
          "type": "uint256"
        },
        {
          "internalType": "bytes",
          "name": "_data",
          "type": "bytes"
        }
      ],
      "name": "safeTransferFrom",
      "outputs": [],
      "stateMutability": "nonpayable",
      "type": "function"
    },
    {
      "inputs": [],
      "name": "saleIsActive",
      "outputs": [
        {
          "internalType": "bool",
          "name": "",
          "type": "bool"
        }
      ],
      "stateMutability": "view",
      "type": "function",
      "constant": true
    },
    {
      "inputs": [
        {
          "internalType": "address",
          "name": "operator",
          "type": "address"
        },
        {
          "internalType": "bool",
          "name": "approved",
          "type": "bool"
        }
      ],
      "name": "setApprovalForAll",
      "outputs": [],
      "stateMutability": "nonpayable",
      "type": "function"
    },
    {
      "inputs": [
        {
          "internalType": "bytes4",
          "name": "interfaceId",
          "type": "bytes4"
        }
      ],
      "name": "supportsInterface",
      "outputs": [
        {
          "internalType": "bool",
          "name": "",
          "type": "bool"
        }
      ],
      "stateMutability": "view",
      "type": "function",
      "constant": true
    },
    {
      "inputs": [],
      "name": "symbol",
      "outputs": [
        {
          "internalType": "string",
          "name": "",
          "type": "string"
        }
      ],
      "stateMutability": "view",
      "type": "function",
      "constant": true
    },
    {
      "inputs": [
        {
          "internalType": "uint256",
          "name": "tokenId",
          "type": "uint256"
        }
      ],
      "name": "tokenURI",
      "outputs": [
        {
          "internalType": "string",
          "name": "",
          "type": "string"
        }
      ],
      "stateMutability": "view",
      "type": "function",
      "constant": true
    },
    {
      "inputs": [
        {
          "internalType": "address",
          "name": "from",
          "type": "address"
        },
        {
          "internalType": "address",
          "name": "to",
          "type": "address"
        },
        {
          "internalType": "uint256",
          "name": "tokenId",
          "type": "uint256"
        }
      ],
      "name": "transferFrom",
      "outputs": [],
      "stateMutability": "nonpayable",
      "type": "function"
    },
    {
      "inputs": [
        {
          "internalType": "address",
          "name": "newOwner",
          "type": "address"
        }
      ],
      "name": "transferOwnership",
      "outputs": [],
      "stateMutability": "nonpayable",
      "type": "function"
    },
    {
      "inputs": [],
      "name": "withdraw",
      "outputs": [],
      "stateMutability": "nonpayable",
      "type": "function"
    },
    {
      "inputs": [],
      "name": "flipSaleState",
      "outputs": [],
      "stateMutability": "nonpayable",
      "type": "function"
    },
    {
      "inputs": [
        {
          "internalType": "address",
          "name": "_addressToWhitelist",
          "type": "address"
        }
      ],
      "name": "whitelistUser",
      "outputs": [],
      "stateMutability": "nonpayable",
      "type": "function"
    },
    {
      "inputs": [
        {
          "internalType": "address",
          "name": "_addressToWhitelist",
          "type": "address"
        }
      ],
      "name": "removeWhitelistUser",
      "outputs": [],
      "stateMutability": "nonpayable",
      "type": "function"
    },
    {
      "inputs": [
        {
          "internalType": "address",
          "name": "_whitelistedAddress",
          "type": "address"
        }
      ],
      "name": "checkUserWhitelist",
      "outputs": [
        {
          "internalType": "bool",
          "name": "",
          "type": "bool"
        }
      ],
      "stateMutability": "view",
      "type": "function",
      "constant": true
    },
    {
      "inputs": [
        {
          "internalType": "string",
          "name": "tokenURI",
          "type": "string"
        },
        {
          "internalType": "string",
          "name": "_color",
          "type": "string"
        }
      ],
      "name": "createToken",
      "outputs": [
        {
          "internalType": "uint256",
          "name": "",
          "type": "uint256"
        }
      ],
      "stateMutability": "payable",
      "type": "function",
      "payable": true
    }
  ],
  "bytecode": "0x6080604052600a805460ff60a01b191690553480156200001e57600080fd5b50604051620023e3380380620023e3833981016040819052620000419162000298565b604080518082018252601c81527f436f72616c20506c617967726f756e64202d204167726f204f63746f0000000060208083019182528351808501909452600f84526e434f52414c5f4147524f5f4f43544f60881b908401528151919291620000ad91600091620001f2565b508051620000c3906001906020840190620001f2565b505050620000e0620000da6200019c60201b60201c565b620001a0565b600a80546001600160a01b0319166001600160a01b03851617905561ffff82166200015b5760405162461bcd60e51b815260206004820152602160248201527f4d617820737570706c79206d7573742062652067726561746572207468616e206044820152600360fc1b606482015260840160405180910390fd5b600a805460ff909216600160b81b0260ff60b81b1961ffff909416600160a81b029390931662ffffff60a81b1990921691909117919091179055506200033e565b3390565b600780546001600160a01b038381166001600160a01b0319831681179093556040519116919082907f8be0079c531659141344cd1fd0a4f28419497f9722a3daafe3b4186f6b6457e090600090a35050565b828054620002009062000302565b90600052602060002090601f0160209004810192826200022457600085556200026f565b82601f106200023f57805160ff19168380011785556200026f565b828001600101855582156200026f579182015b828111156200026f57825182559160200191906001019062000252565b506200027d92915062000281565b5090565b5b808211156200027d576000815560010162000282565b600080600060608486031215620002ae57600080fd5b83516001600160a01b0381168114620002c657600080fd5b602085015190935061ffff81168114620002df57600080fd5b604085015190925060ff81168114620002f757600080fd5b809150509250925092565b600181811c908216806200031757607f821691505b6020821081036200033857634e487b7160e01b600052602260045260246000fd5b50919050565b612095806200034e6000396000f3fe60806040526004361061019c5760003560e01c8063676dd563116100ec578063b88d4fde1161008a578063e96934e211610064578063e96934e2146104c4578063e985e9c5146104fd578063eb8d244414610546578063f2fde38b1461056757600080fd5b8063b88d4fde14610451578063b9c3a81814610471578063c87b56dd146104a457600080fd5b8063715018a6116100c6578063715018a6146103e95780638da5cb5b146103fe57806395d89b411461041c578063a22cb4651461043157600080fd5b8063676dd563146103725780636ab200581461038e57806370a08231146103c957600080fd5b806330cc7ae0116101595780633ccfd60b116101335780633ccfd60b146102fd57806342842e0e146103125780634a4c560d146103325780636352211e1461035257600080fd5b806330cc7ae01461029357806332cb6b0c146102b357806334918dfd146102e857600080fd5b806301ffc9a7146101a157806306fdde03146101d6578063081812fc146101f8578063095ea7b31461023057806323b872dd146102525780632f2f2d5614610272575b600080fd5b3480156101ad57600080fd5b506101c16101bc366004611a88565b610587565b60405190151581526020015b60405180910390f35b3480156101e257600080fd5b506101eb6105d9565b6040516101cd9190611afd565b34801561020457600080fd5b50610218610213366004611b10565b61066b565b6040516001600160a01b0390911681526020016101cd565b34801561023c57600080fd5b5061025061024b366004611b45565b6106f8565b005b34801561025e57600080fd5b5061025061026d366004611b6f565b61080d565b610285610280366004611c57565b61083e565b6040519081526020016101cd565b34801561029f57600080fd5b506102506102ae366004611cbb565b610b9d565b3480156102bf57600080fd5b50600a546102d590600160a81b900461ffff1681565b60405161ffff90911681526020016101cd565b3480156102f457600080fd5b50610250610be8565b34801561030957600080fd5b50610250610c33565b34801561031e57600080fd5b5061025061032d366004611b6f565b610c90565b34801561033e57600080fd5b5061025061034d366004611cbb565b610cab565b34801561035e57600080fd5b5061021861036d366004611b10565b610cf9565b34801561037e57600080fd5b5061028567016345785d8a000081565b34801561039a57600080fd5b506101c16103a9366004611cd6565b8051602081830181018051600b8252928201919093012091525460ff1681565b3480156103d557600080fd5b506102856103e4366004611cbb565b610d70565b3480156103f557600080fd5b50610250610df7565b34801561040a57600080fd5b506007546001600160a01b0316610218565b34801561042857600080fd5b506101eb610e2d565b34801561043d57600080fd5b5061025061044c366004611d0b565b610e3c565b34801561045d57600080fd5b5061025061046c366004611d47565b610e47565b34801561047d57600080fd5b50600a5461049290600160b81b900460ff1681565b60405160ff90911681526020016101cd565b3480156104b057600080fd5b506101eb6104bf366004611b10565b610e7f565b3480156104d057600080fd5b506101c16104df366004611cbb565b6001600160a01b03166000908152600c602052604090205460ff1690565b34801561050957600080fd5b506101c1610518366004611dc3565b6001600160a01b03918216600090815260056020908152604080832093909416825291909152205460ff1690565b34801561055257600080fd5b50600a546101c190600160a01b900460ff1681565b34801561057357600080fd5b50610250610582366004611cbb565b610ff5565b60006001600160e01b031982166380ac58cd60e01b14806105b857506001600160e01b03198216635b5e139f60e01b145b806105d357506301ffc9a760e01b6001600160e01b03198316145b92915050565b6060600080546105e890611df6565b80601f016020809104026020016040519081016040528092919081815260200182805461061490611df6565b80156106615780601f1061063657610100808354040283529160200191610661565b820191906000526020600020905b81548152906001019060200180831161064457829003601f168201915b5050505050905090565b600061067682611090565b6106dc5760405162461bcd60e51b815260206004820152602c60248201527f4552433732313a20617070726f76656420717565727920666f72206e6f6e657860448201526b34b9ba32b73a103a37b5b2b760a11b60648201526084015b60405180910390fd5b506000908152600460205260409020546001600160a01b031690565b600061070382610cf9565b9050806001600160a01b0316836001600160a01b0316036107705760405162461bcd60e51b815260206004820152602160248201527f4552433732313a20617070726f76616c20746f2063757272656e74206f776e656044820152603960f91b60648201526084016106d3565b336001600160a01b038216148061078c575061078c8133610518565b6107fe5760405162461bcd60e51b815260206004820152603860248201527f4552433732313a20617070726f76652063616c6c6572206973206e6f74206f7760448201527f6e6572206e6f7220617070726f76656420666f7220616c6c000000000000000060648201526084016106d3565b61080883836110ad565b505050565b610817338261111b565b6108335760405162461bcd60e51b81526004016106d390611e30565b610808838383611201565b600a54600090600160a01b900460ff1661089a5760405162461bcd60e51b815260206004820181905260248201527f53616c65206d7573742062652061637469766520746f206d696e74204f63746f60448201526064016106d3565b600a5461ffff600160a81b909104166108b260085490565b1061092f5760405162461bcd60e51b815260206004820152604160248201527f536f7272792c20616c6c20746f6b656e732068617665206265656e206d696e7460448201527f65642e20537461792074756e656420666f72206f7572206e6578742064726f706064820152602160f81b608482015260a4016106d3565b600b8260405161093f9190611e81565b9081526040519081900360200190205460ff16156109eb5760405162461bcd60e51b815260206004820152605c60248201527f416e204e46542077697468207468652073616d6520636f6c6f7273206861732060448201527f616c7265616479206265656e206d696e7465642e20506c656173652073656c6560648201527f6374206120646966666572656e7420636f6c6f72207061747465726e00000000608482015260a4016106d3565b6007546001600160a01b03163303610a8d57600a5460ff600160b81b90910416610a1460095490565b10610a7a5760405162461bcd60e51b815260206004820152603060248201527f536f7272792c20616c6c20666f756e64696e67207465616d20746f6b656e732060448201526f1a185d99481899595b881b5a5b9d195960821b60648201526084016106d3565b610a88600980546001019055565b610b1d565b336000908152600c602052604090205460ff161515600103610ac557336000908152600c60205260409020805460ff19169055610b1d565b67016345785d8a0000341015610b1d5760405162461bcd60e51b815260206004820152601b60248201527f496e73756666696369656e742066756e64732070726f7669646564000000000060448201526064016106d3565b610b2b600880546001019055565b6000610b3660085490565b9050610b4233826113a1565b610b4c81856113bb565b600a54610b63906001600160a01b03166001610e3c565b6001600b84604051610b759190611e81565b908152604051908190036020019020805491151560ff19909216919091179055905092915050565b6007546001600160a01b03163314610bc75760405162461bcd60e51b81526004016106d390611e9d565b6001600160a01b03166000908152600c60205260409020805460ff19169055565b6007546001600160a01b03163314610c125760405162461bcd60e51b81526004016106d390611e9d565b600a805460ff60a01b198116600160a01b9182900460ff1615909102179055565b6007546001600160a01b03163314610c5d5760405162461bcd60e51b81526004016106d390611e9d565b6040514790339082156108fc029083906000818181858888f19350505050158015610c8c573d6000803e3d6000fd5b5050565b61080883838360405180602001604052806000815250610e47565b6007546001600160a01b03163314610cd55760405162461bcd60e51b81526004016106d390611e9d565b6001600160a01b03166000908152600c60205260409020805460ff19166001179055565b6000818152600260205260408120546001600160a01b0316806105d35760405162461bcd60e51b815260206004820152602960248201527f4552433732313a206f776e657220717565727920666f72206e6f6e657869737460448201526832b73a103a37b5b2b760b91b60648201526084016106d3565b60006001600160a01b038216610ddb5760405162461bcd60e51b815260206004820152602a60248201527f4552433732313a2062616c616e636520717565727920666f7220746865207a65604482015269726f206164647265737360b01b60648201526084016106d3565b506001600160a01b031660009081526003602052604090205490565b6007546001600160a01b03163314610e215760405162461bcd60e51b81526004016106d390611e9d565b610e2b6000611446565b565b6060600180546105e890611df6565b610c8c338383611498565b610e51338361111b565b610e6d5760405162461bcd60e51b81526004016106d390611e30565b610e7984848484611566565b50505050565b6060610e8a82611090565b610ef05760405162461bcd60e51b815260206004820152603160248201527f45524337323155524953746f726167653a2055524920717565727920666f72206044820152703737b732bc34b9ba32b73a103a37b5b2b760791b60648201526084016106d3565b60008281526006602052604081208054610f0990611df6565b80601f0160208091040260200160405190810160405280929190818152602001828054610f3590611df6565b8015610f825780601f10610f5757610100808354040283529160200191610f82565b820191906000526020600020905b815481529060010190602001808311610f6557829003601f168201915b505050505090506000610fa060408051602081019091526000815290565b90508051600003610fb2575092915050565b815115610fe4578082604051602001610fcc929190611ed2565b60405160208183030381529060405292505050919050565b610fed84611599565b949350505050565b6007546001600160a01b0316331461101f5760405162461bcd60e51b81526004016106d390611e9d565b6001600160a01b0381166110845760405162461bcd60e51b815260206004820152602660248201527f4f776e61626c653a206e6577206f776e657220697320746865207a65726f206160448201526564647265737360d01b60648201526084016106d3565b61108d81611446565b50565b6000908152600260205260409020546001600160a01b0316151590565b600081815260046020526040902080546001600160a01b0319166001600160a01b03841690811790915581906110e282610cf9565b6001600160a01b03167f8c5be1e5ebec7d5bd14f71427d1e84f3dd0314c0f7b2291e5b200ac8c7c3b92560405160405180910390a45050565b600061112682611090565b6111875760405162461bcd60e51b815260206004820152602c60248201527f4552433732313a206f70657261746f7220717565727920666f72206e6f6e657860448201526b34b9ba32b73a103a37b5b2b760a11b60648201526084016106d3565b600061119283610cf9565b9050806001600160a01b0316846001600160a01b031614806111cd5750836001600160a01b03166111c28461066b565b6001600160a01b0316145b80610fed57506001600160a01b0380821660009081526005602090815260408083209388168352929052205460ff16610fed565b826001600160a01b031661121482610cf9565b6001600160a01b03161461127c5760405162461bcd60e51b815260206004820152602960248201527f4552433732313a207472616e73666572206f6620746f6b656e2074686174206960448201526839903737ba1037bbb760b91b60648201526084016106d3565b6001600160a01b0382166112de5760405162461bcd60e51b8152602060048201526024808201527f4552433732313a207472616e7366657220746f20746865207a65726f206164646044820152637265737360e01b60648201526084016106d3565b6112e96000826110ad565b6001600160a01b0383166000908152600360205260408120805460019290611312908490611f17565b90915550506001600160a01b0382166000908152600360205260408120805460019290611340908490611f2e565b909155505060008181526002602052604080822080546001600160a01b0319166001600160a01b0386811691821790925591518493918716917fddf252ad1be2c89b69c2b068fc378daa952ba7f163c4a11628f55a4df523b3ef91a4505050565b610c8c828260405180602001604052806000815250611671565b6113c482611090565b6114275760405162461bcd60e51b815260206004820152602e60248201527f45524337323155524953746f726167653a2055524920736574206f66206e6f6e60448201526d32bc34b9ba32b73a103a37b5b2b760911b60648201526084016106d3565b60008281526006602090815260409091208251610808928401906119d9565b600780546001600160a01b038381166001600160a01b0319831681179093556040519116919082907f8be0079c531659141344cd1fd0a4f28419497f9722a3daafe3b4186f6b6457e090600090a35050565b816001600160a01b0316836001600160a01b0316036114f95760405162461bcd60e51b815260206004820152601960248201527f4552433732313a20617070726f766520746f2063616c6c65720000000000000060448201526064016106d3565b6001600160a01b03838116600081815260056020908152604080832094871680845294825291829020805460ff191686151590811790915591519182527f17307eab39ab6107e8899845ad3d59bd9653f200f220920489ca2b5937696c31910160405180910390a3505050565b611571848484611201565b61157d848484846116a4565b610e795760405162461bcd60e51b81526004016106d390611f46565b60606115a482611090565b6116085760405162461bcd60e51b815260206004820152602f60248201527f4552433732314d657461646174613a2055524920717565727920666f72206e6f60448201526e3732bc34b9ba32b73a103a37b5b2b760891b60648201526084016106d3565b600061161f60408051602081019091526000815290565b9050600081511161163f576040518060200160405280600081525061166a565b80611649846117a5565b60405160200161165a929190611ed2565b6040516020818303038152906040525b9392505050565b61167b83836118a6565b61168860008484846116a4565b6108085760405162461bcd60e51b81526004016106d390611f46565b60006001600160a01b0384163b1561179a57604051630a85bd0160e11b81526001600160a01b0385169063150b7a02906116e8903390899088908890600401611f98565b6020604051808303816000875af1925050508015611723575060408051601f3d908101601f1916820190925261172091810190611fd5565b60015b611780573d808015611751576040519150601f19603f3d011682016040523d82523d6000602084013e611756565b606091505b5080516000036117785760405162461bcd60e51b81526004016106d390611f46565b805181602001fd5b6001600160e01b031916630a85bd0160e11b149050610fed565b506001949350505050565b6060816000036117cc5750506040805180820190915260018152600360fc1b602082015290565b8160005b81156117f657806117e081611ff2565b91506117ef9050600a83612021565b91506117d0565b60008167ffffffffffffffff81111561181157611811611bab565b6040519080825280601f01601f19166020018201604052801561183b576020820181803683370190505b5090505b8415610fed57611850600183611f17565b915061185d600a86612035565b611868906030611f2e565b60f81b81838151811061187d5761187d612049565b60200101906001600160f81b031916908160001a90535061189f600a86612021565b945061183f565b6001600160a01b0382166118fc5760405162461bcd60e51b815260206004820181905260248201527f4552433732313a206d696e7420746f20746865207a65726f206164647265737360448201526064016106d3565b61190581611090565b156119525760405162461bcd60e51b815260206004820152601c60248201527f4552433732313a20746f6b656e20616c7265616479206d696e7465640000000060448201526064016106d3565b6001600160a01b038216600090815260036020526040812080546001929061197b908490611f2e565b909155505060008181526002602052604080822080546001600160a01b0319166001600160a01b03861690811790915590518392907fddf252ad1be2c89b69c2b068fc378daa952ba7f163c4a11628f55a4df523b3ef908290a45050565b8280546119e590611df6565b90600052602060002090601f016020900481019282611a075760008555611a4d565b82601f10611a2057805160ff1916838001178555611a4d565b82800160010185558215611a4d579182015b82811115611a4d578251825591602001919060010190611a32565b50611a59929150611a5d565b5090565b5b80821115611a595760008155600101611a5e565b6001600160e01b03198116811461108d57600080fd5b600060208284031215611a9a57600080fd5b813561166a81611a72565b60005b83811015611ac0578181015183820152602001611aa8565b83811115610e795750506000910152565b60008151808452611ae9816020860160208601611aa5565b601f01601f19169290920160200192915050565b60208152600061166a6020830184611ad1565b600060208284031215611b2257600080fd5b5035919050565b80356001600160a01b0381168114611b4057600080fd5b919050565b60008060408385031215611b5857600080fd5b611b6183611b29565b946020939093013593505050565b600080600060608486031215611b8457600080fd5b611b8d84611b29565b9250611b9b60208501611b29565b9150604084013590509250925092565b634e487b7160e01b600052604160045260246000fd5b600067ffffffffffffffff80841115611bdc57611bdc611bab565b604051601f8501601f19908116603f01168101908282118183101715611c0457611c04611bab565b81604052809350858152868686011115611c1d57600080fd5b858560208301376000602087830101525050509392505050565b600082601f830112611c4857600080fd5b61166a83833560208501611bc1565b60008060408385031215611c6a57600080fd5b823567ffffffffffffffff80821115611c8257600080fd5b611c8e86838701611c37565b93506020850135915080821115611ca457600080fd5b50611cb185828601611c37565b9150509250929050565b600060208284031215611ccd57600080fd5b61166a82611b29565b600060208284031215611ce857600080fd5b813567ffffffffffffffff811115611cff57600080fd5b610fed84828501611c37565b60008060408385031215611d1e57600080fd5b611d2783611b29565b915060208301358015158114611d3c57600080fd5b809150509250929050565b60008060008060808587031215611d5d57600080fd5b611d6685611b29565b9350611d7460208601611b29565b925060408501359150606085013567ffffffffffffffff811115611d9757600080fd5b8501601f81018713611da857600080fd5b611db787823560208401611bc1565b91505092959194509250565b60008060408385031215611dd657600080fd5b611ddf83611b29565b9150611ded60208401611b29565b90509250929050565b600181811c90821680611e0a57607f821691505b602082108103611e2a57634e487b7160e01b600052602260045260246000fd5b50919050565b60208082526031908201527f4552433732313a207472616e736665722063616c6c6572206973206e6f74206f6040820152701ddb995c881b9bdc88185c1c1c9bdd9959607a1b606082015260800190565b60008251611e93818460208701611aa5565b9190910192915050565b6020808252818101527f4f776e61626c653a2063616c6c6572206973206e6f7420746865206f776e6572604082015260600190565b60008351611ee4818460208801611aa5565b835190830190611ef8818360208801611aa5565b01949350505050565b634e487b7160e01b600052601160045260246000fd5b600082821015611f2957611f29611f01565b500390565b60008219821115611f4157611f41611f01565b500190565b60208082526032908201527f4552433732313a207472616e7366657220746f206e6f6e20455243373231526560408201527131b2b4bb32b91034b6b83632b6b2b73a32b960711b606082015260800190565b6001600160a01b0385811682528416602082015260408101839052608060608201819052600090611fcb90830184611ad1565b9695505050505050565b600060208284031215611fe757600080fd5b815161166a81611a72565b60006001820161200457612004611f01565b5060010190565b634e487b7160e01b600052601260045260246000fd5b6000826120305761203061200b565b500490565b6000826120445761204461200b565b500690565b634e487b7160e01b600052603260045260246000fdfea26469706673582212206084144a8b1b032158de31b5ef26b38a5a2e9cede6b38802c65a386dd99a08bd64736f6c634300080d0033",
  "immutableReferences": {},
  "source": "// SPDX-License-Identifier: GPL-3.0\npragma solidity ^0.8.0;\n\nimport \"@openzeppelin/contracts/token/ERC721/ERC721.sol\";\nimport \"@openzeppelin/contracts/token/ERC721/extensions/ERC721URIStorage.sol\";\nimport \"@openzeppelin/contracts/access/Ownable.sol\";\nimport \"@openzeppelin/contracts/utils/Counters.sol\";\n// import \"../contracts/Whitelist.sol\";\n\ncontract CoralAgroOcto is ERC721URIStorage, Ownable {\n    using Counters for Counters.Counter;\n    Counters.Counter private _tokenIds;\n    Counters.Counter private _teamTokenIds;\n    address contractAddress;\n    uint256 public constant NFT_PRICE = 100000000000000000; //0.1 ETH\n    bool public saleIsActive = false;\n\n    uint16 public MAX_SUPPLY;\n    uint8 public TEAM_SUPPLY;\n\n    mapping(string => bool) public _colorExists;\n    mapping(address => bool) whitelistedAddresses;\n\n    constructor(address marketplaceAddress, uint16 maxNftSupply, uint8 maxTeamSupply) ERC721(\"Coral Playground - Agro Octo\", \"CORAL_AGRO_OCTO\") {\n        contractAddress = marketplaceAddress;\n        require(maxNftSupply > 0, \"Max supply must be greater than 0\");\n        MAX_SUPPLY = maxNftSupply;\n        TEAM_SUPPLY = maxTeamSupply;\n    }\n\n    modifier isWhitelisted(address _address) {\n      require(whitelistedAddresses[_address], \"Whitelist: You need to be whitelisted\");\n      _;\n    }\n\n    function withdraw() public onlyOwner {\n        uint balance = address(this).balance;\n        payable (msg.sender).transfer(balance);\n    }\n\n    /*\n    * Pause sale if active, make active if paused\n    */\n    function flipSaleState() public onlyOwner {\n        saleIsActive = !saleIsActive;\n    }\n\n    function whitelistUser(address _addressToWhitelist) public onlyOwner {\n      whitelistedAddresses[_addressToWhitelist] = true;\n    }\n    function removeWhitelistUser(address _addressToWhitelist) public onlyOwner {\n      whitelistedAddresses[_addressToWhitelist] = false;\n    }\n\n    function checkUserWhitelist(address _whitelistedAddress) public view returns(bool) {\n      bool userIsWhitelisted = whitelistedAddresses[_whitelistedAddress];\n      return userIsWhitelisted;\n    }\n\n    function createToken(string memory tokenURI, string memory _color) public payable returns (uint) {\n\n        require(saleIsActive, \"Sale must be active to mint Octo\");\n        require(_tokenIds.current() < MAX_SUPPLY, \"Sorry, all tokens have been minted. Stay tuned for our next drop!\");\n        require(_colorExists[_color] == false, \"An NFT with the same colors has already been minted. Please select a different color pattern\");\n        \n        if  (msg.sender == owner() ) {\n            require(_teamTokenIds.current() < TEAM_SUPPLY, \"Sorry, all founding team tokens have been minted\");\n            _teamTokenIds.increment();\n        } else if (whitelistedAddresses[msg.sender] ==  true ) {\n            whitelistedAddresses[msg.sender] = false;\n        } else {\n            require( msg.value >= NFT_PRICE, \"Insufficient funds provided\");\n        }\n\n        _tokenIds.increment();\n        uint256 newItemId = _tokenIds.current();\n\n        _safeMint(msg.sender, newItemId);\n        _setTokenURI(newItemId, tokenURI);\n        setApprovalForAll(contractAddress, true);\n        _colorExists[_color] = true;\n        return newItemId;\n    }\n\n    // function createWhitelistedToken(string memory tokenURI, string memory _color) public payable isWhitelisted(msg.sender) returns (uint) {\n\n    //     require(saleIsActive, \"Sale must be active to mint Octo\");\n    //     require(_tokenIds.current() < MAX_SUPPLY, \"Sorry, all tokens have been minted. Stay tuned for our next drop!\");\n    //     require(_colorExists[_color] == false, \"An NFT with the same colors has already been minted. Please select a different color pattern\");\n    //     require( msg.value >= NFT_PRICE, \"Insufficient funds provided\");\n\n    //     _tokenIds.increment();\n    //     uint256 newItemId = _tokenIds.current();\n\n    //     _safeMint(msg.sender, newItemId);\n    //     _setTokenURI(newItemId, tokenURI);\n    //     setApprovalForAll(contractAddress, true);\n    //     _colorExists[_color] = true;\n    //     return newItemId;\n    // }\n}",
  "sourcePath": "/Users/ash/Dropbox/Hackathon/coral_playground/contracts/CoralAgroOcto.sol",
  "compiler": {
    "name": "solc",
    "version": "0.8.13+commit.abaa5c0e.Emscripten.clang"
  },
  "schemaVersion": "3.4.3",
  "updatedAt": "2022-04-17T00:49:43.265Z",
  "networkType": "ethereum",
  "devdoc": {
    "kind": "dev",
    "methods": {
      "approve(address,uint256)": {
        "details": "See {IERC721-approve}."
      },
      "balanceOf(address)": {
        "details": "See {IERC721-balanceOf}."
      },
      "getApproved(uint256)": {
        "details": "See {IERC721-getApproved}."
      },
      "isApprovedForAll(address,address)": {
        "details": "See {IERC721-isApprovedForAll}."
      },
      "name()": {
        "details": "See {IERC721Metadata-name}."
      },
      "owner()": {
        "details": "Returns the address of the current owner."
      },
      "ownerOf(uint256)": {
        "details": "See {IERC721-ownerOf}."
      },
      "renounceOwnership()": {
        "details": "Leaves the contract without owner. It will not be possible to call `onlyOwner` functions anymore. Can only be called by the current owner. NOTE: Renouncing ownership will leave the contract without an owner, thereby removing any functionality that is only available to the owner."
      },
      "safeTransferFrom(address,address,uint256)": {
        "details": "See {IERC721-safeTransferFrom}."
      },
      "safeTransferFrom(address,address,uint256,bytes)": {
        "details": "See {IERC721-safeTransferFrom}."
      },
      "setApprovalForAll(address,bool)": {
        "details": "See {IERC721-setApprovalForAll}."
      },
      "supportsInterface(bytes4)": {
        "details": "See {IERC165-supportsInterface}."
      },
      "symbol()": {
        "details": "See {IERC721Metadata-symbol}."
      },
      "tokenURI(uint256)": {
        "details": "See {IERC721Metadata-tokenURI}."
      },
      "transferFrom(address,address,uint256)": {
        "details": "See {IERC721-transferFrom}."
      },
      "transferOwnership(address)": {
        "details": "Transfers ownership of the contract to a new account (`newOwner`). Can only be called by the current owner."
      }
    },
    "version": 1
  },
  "userdoc": {
    "kind": "user",
    "methods": {},
    "version": 1
  }
}