{
  "contractName": "CoralPlaygroundMarket",
  "abi": [
    {
      "inputs": [],
      "stateMutability": "nonpayable",
      "type": "constructor"
    },
    {
      "anonymous": false,
      "inputs": [
        {
          "indexed": true,
          "internalType": "uint256",
          "name": "itemId",
          "type": "uint256"
        },
        {
          "indexed": true,
          "internalType": "address",
          "name": "nftContract",
          "type": "address"
        },
        {
          "indexed": true,
          "internalType": "uint256",
          "name": "tokenId",
          "type": "uint256"
        },
        {
          "indexed": false,
          "internalType": "address",
          "name": "seller",
          "type": "address"
        },
        {
          "indexed": false,
          "internalType": "address",
          "name": "owner",
          "type": "address"
        },
        {
          "indexed": false,
          "internalType": "uint256",
          "name": "price",
          "type": "uint256"
        },
        {
          "indexed": false,
          "internalType": "bool",
          "name": "sold",
          "type": "bool"
        }
      ],
      "name": "MarketItemCreated",
      "type": "event"
    },
    {
      "anonymous": false,
      "inputs": [
        {
          "indexed": true,
          "internalType": "uint256",
          "name": "itemId",
          "type": "uint256"
        },
        {
          "indexed": false,
          "internalType": "address",
          "name": "owner",
          "type": "address"
        },
        {
          "indexed": false,
          "internalType": "uint256",
          "name": "price",
          "type": "uint256"
        }
      ],
      "name": "MarketItemSold",
      "type": "event"
    },
    {
      "inputs": [],
      "name": "owner",
      "outputs": [
        {
          "internalType": "address",
          "name": "",
          "type": "address"
        }
      ],
      "stateMutability": "view",
      "type": "function",
      "constant": true
    },
    {
      "inputs": [
        {
          "internalType": "address",
          "name": "nftContract",
          "type": "address"
        },
        {
          "internalType": "uint256",
          "name": "tokenId",
          "type": "uint256"
        },
        {
          "internalType": "uint256",
          "name": "price",
          "type": "uint256"
        }
      ],
      "name": "createMarketItem",
      "outputs": [
        {
          "internalType": "uint256",
          "name": "",
          "type": "uint256"
        }
      ],
      "stateMutability": "payable",
      "type": "function",
      "payable": true
    },
    {
      "inputs": [
        {
          "internalType": "address",
          "name": "nftContract",
          "type": "address"
        },
        {
          "internalType": "uint256",
          "name": "itemId",
          "type": "uint256"
        }
      ],
      "name": "createMarketSale",
      "outputs": [],
      "stateMutability": "payable",
      "type": "function",
      "payable": true
    },
    {
      "inputs": [],
      "name": "fetchMarketItems",
      "outputs": [
        {
          "components": [
            {
              "internalType": "uint256",
              "name": "itemId",
              "type": "uint256"
            },
            {
              "internalType": "address",
              "name": "nftContract",
              "type": "address"
            },
            {
              "internalType": "uint256",
              "name": "tokenId",
              "type": "uint256"
            },
            {
              "internalType": "address payable",
              "name": "seller",
              "type": "address"
            },
            {
              "internalType": "address payable",
              "name": "owner",
              "type": "address"
            },
            {
              "internalType": "uint256",
              "name": "price",
              "type": "uint256"
            },
            {
              "internalType": "bool",
              "name": "sold",
              "type": "bool"
            }
          ],
          "internalType": "struct CoralPlaygroundMarket.MarketItem[]",
          "name": "",
          "type": "tuple[]"
        }
      ],
      "stateMutability": "view",
      "type": "function",
      "constant": true
    }
  ],
  "bytecode": "0x608060405234801561001057600080fd5b506001600055600380546001600160a01b031916331790556108f4806100376000396000f3fe60806040526004361061003f5760003560e01c80630f08efe01461004457806358eb2df51461006f5780638da5cb5b14610090578063c23b139e146100c8575b600080fd5b34801561005057600080fd5b506100596100dd565b6040516100669190610727565b60405180910390f35b61008261007d3660046107d7565b610294565b604051908152602001610066565b34801561009c57600080fd5b506003546100b0906001600160a01b031681565b6040516001600160a01b039091168152602001610066565b6100db6100d636600461080a565b61048a565b005b606060006100ea60015490565b905060006100f760025490565b600154610104919061084a565b90506000808267ffffffffffffffff81111561012257610122610861565b60405190808252806020026020018201604052801561018957816020015b6040805160e08101825260008082526020808301829052928201819052606082018190526080820181905260a0820181905260c082015282526000199092019101816101405790505b50905060005b8481101561028b5760006004816101a7846001610877565b81526020810191909152604001600020600401546001600160a01b0316036102795760006101d6826001610877565b600081815260046020818152604092839020835160e0810185528154815260018201546001600160a01b039081169382019390935260028201549481019490945260038101548216606085015291820154166080830152600581015460a0830152600681015460ff16151560c083015285519293509185908790811061025e5761025e61088f565b6020908102919091010152610274600186610877565b945050505b80610283816108a5565b91505061018f565b50949350505050565b60006002600054036102ed5760405162461bcd60e51b815260206004820152601f60248201527f5265656e7472616e637947756172643a207265656e7472616e742063616c6c0060448201526064015b60405180910390fd5b60026000558161033f5760405162461bcd60e51b815260206004820152601c60248201527f5072696365206d7573742062652067726561746572207468616e20300000000060448201526064016102e4565b61034d600180546001019055565b600061035860015490565b6040805160e0810182528281526001600160a01b0380891660208084018281528486018b8152336060870181815260006080890181815260a08a018f815260c08b018381528d84526004988990528c84209b518c55965160018c018054918c166001600160a01b0319928316179055955160028c0155925160038b018054918b1691871691909117905551958901805496909816959093169490941790955591516005860155516006909401805494151560ff19909516949094179093559251939450879385927f045dfa01dcba2b36aba1d3dc4a874f4b0c5d2fbeb8d2c4b34a7d88c8d8f929d192610475929091908a9082906001600160a01b0394851681529290931660208301526040820152901515606082015260800190565b60405180910390a46001600055949350505050565b6002600054036104dc5760405162461bcd60e51b815260206004820152601f60248201527f5265656e7472616e637947756172643a207265656e7472616e742063616c6c0060448201526064016102e4565b6002600081815582815260046020526040902060058101549181015460069091015460ff16348314610578576040805162461bcd60e51b81526020600482015260248101919091527f506c65617365207375626d6974207468652061736b696e67207072696365206960448201527f6e206f7264657220746f20636f6d706c6574652074686520707572636861736560648201526084016102e4565b8015156001036105ca5760405162461bcd60e51b815260206004820152601e60248201527f546869732053616c652068617320616c726564792066696e6e6973686564000060448201526064016102e4565b6000848152600460205260408082206003015490516001600160a01b03909116913480156108fc02929091818181858888f19350505050158015610612573d6000803e3d6000fd5b50600084815260046020819052604091829020600301549151632142170760e11b81526001600160a01b039283169181019190915233602482015260448101849052908616906342842e0e90606401600060405180830381600087803b15801561067b57600080fd5b505af115801561068f573d6000803e3d6000fd5b50505060008581526004602081905260409091200180546001600160a01b03191633179055506106c3600280546001019055565b600084815260046020908152604091829020600601805460ff19166001179055815133815290810185905285917f79705a7faf0849ec33d9f436aa88d50146d23806527cf13010abf315cbfe7600910160405180910390a250506001600055505050565b602080825282518282018190526000919060409081850190868401855b828110156107ae57815180518552868101516001600160a01b039081168887015286820151878701526060808301518216908701526080808301519091169086015260a0808201519086015260c09081015115159085015260e09093019290850190600101610744565b5091979650505050505050565b80356001600160a01b03811681146107d257600080fd5b919050565b6000806000606084860312156107ec57600080fd5b6107f5846107bb565b95602085013595506040909401359392505050565b6000806040838503121561081d57600080fd5b610826836107bb565b946020939093013593505050565b634e487b7160e01b600052601160045260246000fd5b60008282101561085c5761085c610834565b500390565b634e487b7160e01b600052604160045260246000fd5b6000821982111561088a5761088a610834565b500190565b634e487b7160e01b600052603260045260246000fd5b6000600182016108b7576108b7610834565b506001019056fea264697066735822122059e77460cb70da1642f9f7e4d06a4022cc102c6a0ee48bcce17b09b0fdc9ae1364736f6c634300080d0033",
  "immutableReferences": {},
  "source": "// SPDX-License-Identifier: MIT\npragma solidity ^0.8.0;\n\n// import \"../node_modules/@openzeppelin/contracts/token/ERC721/ERC721.sol\";\nimport \"@openzeppelin/contracts/token/ERC721/IERC721.sol\";\nimport \"@openzeppelin/contracts/utils/Counters.sol\";\nimport \"@openzeppelin/contracts/security/ReentrancyGuard.sol\";\n\ncontract CoralPlaygroundMarket is ReentrancyGuard {\n    using Counters for Counters.Counter;\n    Counters.Counter private _itemIds;\n    Counters.Counter private _itemsSold;\n    \n    address public owner;\n    \n    constructor() {\n        owner = msg.sender;\n    }\n     \n    struct MarketItem {\n        uint itemId;\n        address nftContract;\n        uint256 tokenId;\n        address payable seller;\n        address payable owner;\n        uint256 price;\n        bool sold;\n    }\n\n    // MarketItem[] public itemsForSale;\n    // mapping(address => mapping(uint256 => bool)) activeItems;\n    mapping(uint256 => MarketItem) private idToMarketItem;\n     \n    event MarketItemCreated (\n        uint indexed itemId,\n        address indexed nftContract,\n        uint256 indexed tokenId,\n        address seller,\n        address owner,\n        uint256 price,\n        bool sold\n    );\n\n    // Moralis Sync\n    // MarketItemCreated(uint256, address, uint256, address, address, uint256, bool)\n     \n    event MarketItemSold (\n        uint indexed itemId,\n        address owner,\n        uint price\n        );\n     \n    // modifier OnlyItemOwner(address nftContract, uint256 tokenId){\n    //     IERC721 tokenContract = IERC721(nftContract);\n    //     require(tokenContract.ownerOf(tokenId) == msg.sender);\n    //     _;\n    // }\n\n    // modifier HasTransferApproval(address nftContract, uint256 tokenId){\n    //     IERC721 tokenContract = IERC721(nftContract);\n    //     require(tokenContract.getApproved(tokenId) == address(this));\n    //     _;\n    // }\n\n    // modifier ItemExists(uint256 id){\n    //     require(id < itemsForSale.length && itemsForSale[id].itemId == id, \"Could not find item\" );\n    //     _;\n    // }\n\n    // modifier IsForSale(uint256 id){\n    //     require(itemsForSale[id].sold == false, \"Could not find item\" );\n    //     _;\n    // }\n    \n    function createMarketItem(\n        address nftContract,\n        uint256 tokenId,\n        uint256 price\n        ) \n        // OnlyItemOwner(nftContract, tokenId) \n        // HasTransferApproval(nftContract, tokenId) \n        nonReentrant public payable returns(uint256) {\n            require(price > 0, \"Price must be greater than 0\");\n            // require(activeItems[nftContract][tokenId] ==  false, \"Item is already up for sale!\");\n\n            _itemIds.increment();\n            uint256 itemId = _itemIds.current();\n  \n            idToMarketItem[itemId] =  MarketItem(\n                itemId,\n                nftContract,\n                tokenId,\n                payable(msg.sender),\n                payable(address(0)),\n                price,\n                false\n            );\n\n            // activeItems[nftContract][tokenId] = true;\n            // assert(itemsForSale[itemId].itemId == itemId);\n            \n            // IERC721(nftContract).transferFrom(msg.sender, address(this), tokenId);\n                \n            emit MarketItemCreated(\n                itemId,\n                nftContract,\n                tokenId,\n                msg.sender,\n                address(0),\n                price,\n                false\n            );\n        return itemId;\n    }\n        \n    function createMarketSale(\n        address nftContract,\n        uint256 itemId\n        ) public payable \n        // ItemExists(itemId) IsForSale(itemId) \n        // HasTransferApproval(itemsForSale[itemId].nftContract,itemsForSale[itemId].tokenId) \n        nonReentrant {\n            uint price = idToMarketItem[itemId].price;\n            uint tokenId = idToMarketItem[itemId].tokenId;\n            bool sold = idToMarketItem[itemId].sold;\n\n            require(msg.value == price, \"Please submit the asking price in order to complete the purchase\");\n            // require(msg.sender != itemsForSale[itemId].seller);\n            require(sold != true, \"This Sale has alredy finnished\");\n\n            idToMarketItem[itemId].seller.transfer(msg.value);\n            // IERC721(nftContract).safeTransferFrom(address(this), msg.sender, tokenId);\n            IERC721(nftContract).safeTransferFrom(idToMarketItem[itemId].seller, msg.sender, tokenId);\n            idToMarketItem[itemId].owner = payable(msg.sender);\n            _itemsSold.increment();\n            idToMarketItem[itemId].sold = true;\n            // activeItems[itemsForSale[itemId].nftContract][itemsForSale[itemId].tokenId] = false;\n            \n            // emit MarketItemSold( itemId, msg.sender, itemsForSale[itemId].price );\n            emit MarketItemSold( itemId, msg.sender, price );\n\n            // From old contract\n            // itemsForSale[id].isSold = true;\n            // activeItems[itemsForSale[id].tokenAddress][itemsForSale[id].tokenId] = false;\n            // IERC721(itemsForSale[id].tokenAddress).safeTransferFrom(itemsForSale[id].seller, msg.sender, itemsForSale[id].tokenId);\n            // itemsForSale[id].seller.transfer(msg.value);\n        }\n        \n    function fetchMarketItems() public view returns (MarketItem[] memory) {\n        uint itemCount = _itemIds.current();\n        uint unsoldItemCount = _itemIds.current() - _itemsSold.current();\n        uint currentIndex = 0;\n\n        MarketItem[] memory items = new MarketItem[](unsoldItemCount);\n        for (uint i = 0; i < itemCount; i++) {\n            if (idToMarketItem[i + 1].owner == address(0)) {\n                uint currentId = i + 1;\n                MarketItem storage currentItem = idToMarketItem[currentId];\n                items[currentIndex] = currentItem;\n                currentIndex += 1;\n            }\n        }\n        return items;\n    }\n      \n}\n\n/// Thanks for inspiration: https://github.com/dabit3/polygon-ethereum-nextjs-marketplace/",
  "sourcePath": "/Users/ash/Dropbox/Hackathon/coral_playground/contracts/CoralPlaygroundMarket.sol",
  "compiler": {
    "name": "solc",
    "version": "0.8.13+commit.abaa5c0e.Emscripten.clang"
  },
  "schemaVersion": "3.4.3",
  "updatedAt": "2022-04-17T00:51:28.742Z",
  "networkType": "ethereum",
  "devdoc": {
    "kind": "dev",
    "methods": {},
    "version": 1
  },
  "userdoc": {
    "kind": "user",
    "methods": {},
    "version": 1
  }
}