{
  "contractName": "CoralPlayground",
  "abi": [
    {
      "inputs": [
        {
          "internalType": "address",
          "name": "marketplaceAddress",
          "type": "address"
        }
      ],
      "stateMutability": "nonpayable",
      "type": "constructor"
    },
    {
      "anonymous": false,
      "inputs": [
        {
          "indexed": true,
          "internalType": "address",
          "name": "owner",
          "type": "address"
        },
        {
          "indexed": true,
          "internalType": "address",
          "name": "approved",
          "type": "address"
        },
        {
          "indexed": true,
          "internalType": "uint256",
          "name": "tokenId",
          "type": "uint256"
        }
      ],
      "name": "Approval",
      "type": "event"
    },
    {
      "anonymous": false,
      "inputs": [
        {
          "indexed": true,
          "internalType": "address",
          "name": "owner",
          "type": "address"
        },
        {
          "indexed": true,
          "internalType": "address",
          "name": "operator",
          "type": "address"
        },
        {
          "indexed": false,
          "internalType": "bool",
          "name": "approved",
          "type": "bool"
        }
      ],
      "name": "ApprovalForAll",
      "type": "event"
    },
    {
      "anonymous": false,
      "inputs": [
        {
          "indexed": true,
          "internalType": "address",
          "name": "previousOwner",
          "type": "address"
        },
        {
          "indexed": true,
          "internalType": "address",
          "name": "newOwner",
          "type": "address"
        }
      ],
      "name": "OwnershipTransferred",
      "type": "event"
    },
    {
      "anonymous": false,
      "inputs": [
        {
          "indexed": true,
          "internalType": "address",
          "name": "from",
          "type": "address"
        },
        {
          "indexed": true,
          "internalType": "address",
          "name": "to",
          "type": "address"
        },
        {
          "indexed": true,
          "internalType": "uint256",
          "name": "tokenId",
          "type": "uint256"
        }
      ],
      "name": "Transfer",
      "type": "event"
    },
    {
      "inputs": [
        {
          "internalType": "address",
          "name": "to",
          "type": "address"
        },
        {
          "internalType": "uint256",
          "name": "tokenId",
          "type": "uint256"
        }
      ],
      "name": "approve",
      "outputs": [],
      "stateMutability": "nonpayable",
      "type": "function"
    },
    {
      "inputs": [
        {
          "internalType": "address",
          "name": "owner",
          "type": "address"
        }
      ],
      "name": "balanceOf",
      "outputs": [
        {
          "internalType": "uint256",
          "name": "",
          "type": "uint256"
        }
      ],
      "stateMutability": "view",
      "type": "function",
      "constant": true
    },
    {
      "inputs": [
        {
          "internalType": "uint256",
          "name": "tokenId",
          "type": "uint256"
        }
      ],
      "name": "getApproved",
      "outputs": [
        {
          "internalType": "address",
          "name": "",
          "type": "address"
        }
      ],
      "stateMutability": "view",
      "type": "function",
      "constant": true
    },
    {
      "inputs": [
        {
          "internalType": "address",
          "name": "owner",
          "type": "address"
        },
        {
          "internalType": "address",
          "name": "operator",
          "type": "address"
        }
      ],
      "name": "isApprovedForAll",
      "outputs": [
        {
          "internalType": "bool",
          "name": "",
          "type": "bool"
        }
      ],
      "stateMutability": "view",
      "type": "function",
      "constant": true
    },
    {
      "inputs": [],
      "name": "name",
      "outputs": [
        {
          "internalType": "string",
          "name": "",
          "type": "string"
        }
      ],
      "stateMutability": "view",
      "type": "function",
      "constant": true
    },
    {
      "inputs": [],
      "name": "owner",
      "outputs": [
        {
          "internalType": "address",
          "name": "",
          "type": "address"
        }
      ],
      "stateMutability": "view",
      "type": "function",
      "constant": true
    },
    {
      "inputs": [
        {
          "internalType": "uint256",
          "name": "tokenId",
          "type": "uint256"
        }
      ],
      "name": "ownerOf",
      "outputs": [
        {
          "internalType": "address",
          "name": "",
          "type": "address"
        }
      ],
      "stateMutability": "view",
      "type": "function",
      "constant": true
    },
    {
      "inputs": [],
      "name": "renounceOwnership",
      "outputs": [],
      "stateMutability": "nonpayable",
      "type": "function"
    },
    {
      "inputs": [
        {
          "internalType": "address",
          "name": "from",
          "type": "address"
        },
        {
          "internalType": "address",
          "name": "to",
          "type": "address"
        },
        {
          "internalType": "uint256",
          "name": "tokenId",
          "type": "uint256"
        }
      ],
      "name": "safeTransferFrom",
      "outputs": [],
      "stateMutability": "nonpayable",
      "type": "function"
    },
    {
      "inputs": [
        {
          "internalType": "address",
          "name": "from",
          "type": "address"
        },
        {
          "internalType": "address",
          "name": "to",
          "type": "address"
        },
        {
          "internalType": "uint256",
          "name": "tokenId",
          "type": "uint256"
        },
        {
          "internalType": "bytes",
          "name": "_data",
          "type": "bytes"
        }
      ],
      "name": "safeTransferFrom",
      "outputs": [],
      "stateMutability": "nonpayable",
      "type": "function"
    },
    {
      "inputs": [],
      "name": "saleIsActive",
      "outputs": [
        {
          "internalType": "bool",
          "name": "",
          "type": "bool"
        }
      ],
      "stateMutability": "view",
      "type": "function",
      "constant": true
    },
    {
      "inputs": [
        {
          "internalType": "address",
          "name": "operator",
          "type": "address"
        },
        {
          "internalType": "bool",
          "name": "approved",
          "type": "bool"
        }
      ],
      "name": "setApprovalForAll",
      "outputs": [],
      "stateMutability": "nonpayable",
      "type": "function"
    },
    {
      "inputs": [
        {
          "internalType": "bytes4",
          "name": "interfaceId",
          "type": "bytes4"
        }
      ],
      "name": "supportsInterface",
      "outputs": [
        {
          "internalType": "bool",
          "name": "",
          "type": "bool"
        }
      ],
      "stateMutability": "view",
      "type": "function",
      "constant": true
    },
    {
      "inputs": [],
      "name": "symbol",
      "outputs": [
        {
          "internalType": "string",
          "name": "",
          "type": "string"
        }
      ],
      "stateMutability": "view",
      "type": "function",
      "constant": true
    },
    {
      "inputs": [
        {
          "internalType": "uint256",
          "name": "tokenId",
          "type": "uint256"
        }
      ],
      "name": "tokenURI",
      "outputs": [
        {
          "internalType": "string",
          "name": "",
          "type": "string"
        }
      ],
      "stateMutability": "view",
      "type": "function",
      "constant": true
    },
    {
      "inputs": [
        {
          "internalType": "address",
          "name": "from",
          "type": "address"
        },
        {
          "internalType": "address",
          "name": "to",
          "type": "address"
        },
        {
          "internalType": "uint256",
          "name": "tokenId",
          "type": "uint256"
        }
      ],
      "name": "transferFrom",
      "outputs": [],
      "stateMutability": "nonpayable",
      "type": "function"
    },
    {
      "inputs": [
        {
          "internalType": "address",
          "name": "newOwner",
          "type": "address"
        }
      ],
      "name": "transferOwnership",
      "outputs": [],
      "stateMutability": "nonpayable",
      "type": "function"
    },
    {
      "inputs": [],
      "name": "withdraw",
      "outputs": [],
      "stateMutability": "nonpayable",
      "type": "function"
    },
    {
      "inputs": [],
      "name": "flipSaleState",
      "outputs": [],
      "stateMutability": "nonpayable",
      "type": "function"
    },
    {
      "inputs": [
        {
          "internalType": "string",
          "name": "tokenURI",
          "type": "string"
        }
      ],
      "name": "createToken",
      "outputs": [
        {
          "internalType": "uint256",
          "name": "",
          "type": "uint256"
        }
      ],
      "stateMutability": "nonpayable",
      "type": "function"
    }
  ],
  "bytecode": "0x60806040526009805460ff60a01b191690553480156200001e57600080fd5b5060405162001c8e38038062001c8e833981016040819052620000419162000200565b6040518060400160405280601081526020016f10dbdc985b08141b185e59dc9bdd5b9960821b8152506040518060400160405280601081526020016f10d3d4905317d413105651d493d5539160821b8152508160009080519060200190620000ab9291906200015a565b508051620000c19060019060208401906200015a565b505050620000de620000d86200010460201b60201c565b62000108565b600980546001600160a01b0319166001600160a01b03929092169190911790556200026e565b3390565b600780546001600160a01b038381166001600160a01b0319831681179093556040519116919082907f8be0079c531659141344cd1fd0a4f28419497f9722a3daafe3b4186f6b6457e090600090a35050565b828054620001689062000232565b90600052602060002090601f0160209004810192826200018c5760008555620001d7565b82601f10620001a757805160ff1916838001178555620001d7565b82800160010185558215620001d7579182015b82811115620001d7578251825591602001919060010190620001ba565b50620001e5929150620001e9565b5090565b5b80821115620001e55760008155600101620001ea565b6000602082840312156200021357600080fd5b81516001600160a01b03811681146200022b57600080fd5b9392505050565b600181811c908216806200024757607f821691505b6020821081036200026857634e487b7160e01b600052602260045260246000fd5b50919050565b611a10806200027e6000396000f3fe608060405234801561001057600080fd5b506004361061012c5760003560e01c806370a08231116100ad578063b88d4fde11610071578063b88d4fde1461025f578063c87b56dd14610272578063e985e9c514610285578063eb8d2444146102c1578063f2fde38b146102d557600080fd5b806370a0823114610218578063715018a61461022b5780638da5cb5b1461023357806395d89b4114610244578063a22cb4651461024c57600080fd5b806334918dfd116100f457806334918dfd146101c15780633ccfd60b146101c957806342842e0e146101d157806345576f94146101e45780636352211e1461020557600080fd5b806301ffc9a71461013157806306fdde0314610159578063081812fc1461016e578063095ea7b31461019957806323b872dd146101ae575b600080fd5b61014461013f36600461148f565b6102e8565b60405190151581526020015b60405180910390f35b61016161033a565b6040516101509190611504565b61018161017c366004611517565b6103cc565b6040516001600160a01b039091168152602001610150565b6101ac6101a736600461154c565b610459565b005b6101ac6101bc366004611576565b61056e565b6101ac61059f565b6101ac6105ea565b6101ac6101df366004611576565b610647565b6101f76101f236600461163e565b610662565b604051908152602001610150565b610181610213366004611517565b610704565b6101f7610226366004611687565b61077b565b6101ac610802565b6007546001600160a01b0316610181565b610161610838565b6101ac61025a3660046116a2565b610847565b6101ac61026d3660046116de565b610852565b610161610280366004611517565b61088a565b61014461029336600461175a565b6001600160a01b03918216600090815260056020908152604080832093909416825291909152205460ff1690565b60095461014490600160a01b900460ff1681565b6101ac6102e3366004611687565b610a00565b60006001600160e01b031982166380ac58cd60e01b148061031957506001600160e01b03198216635b5e139f60e01b145b8061033457506301ffc9a760e01b6001600160e01b03198316145b92915050565b6060600080546103499061178d565b80601f01602080910402602001604051908101604052809291908181526020018280546103759061178d565b80156103c25780601f10610397576101008083540402835291602001916103c2565b820191906000526020600020905b8154815290600101906020018083116103a557829003601f168201915b5050505050905090565b60006103d782610a9b565b61043d5760405162461bcd60e51b815260206004820152602c60248201527f4552433732313a20617070726f76656420717565727920666f72206e6f6e657860448201526b34b9ba32b73a103a37b5b2b760a11b60648201526084015b60405180910390fd5b506000908152600460205260409020546001600160a01b031690565b600061046482610704565b9050806001600160a01b0316836001600160a01b0316036104d15760405162461bcd60e51b815260206004820152602160248201527f4552433732313a20617070726f76616c20746f2063757272656e74206f776e656044820152603960f91b6064820152608401610434565b336001600160a01b03821614806104ed57506104ed8133610293565b61055f5760405162461bcd60e51b815260206004820152603860248201527f4552433732313a20617070726f76652063616c6c6572206973206e6f74206f7760448201527f6e6572206e6f7220617070726f76656420666f7220616c6c00000000000000006064820152608401610434565b6105698383610ab8565b505050565b6105783382610b26565b6105945760405162461bcd60e51b8152600401610434906117c7565b610569838383610c0c565b6007546001600160a01b031633146105c95760405162461bcd60e51b815260040161043490611818565b6009805460ff60a01b198116600160a01b9182900460ff1615909102179055565b6007546001600160a01b031633146106145760405162461bcd60e51b815260040161043490611818565b6040514790339082156108fc029083906000818181858888f19350505050158015610643573d6000803e3d6000fd5b5050565b61056983838360405180602001604052806000815250610852565b600954600090600160a01b900460ff166106be5760405162461bcd60e51b815260206004820181905260248201527f53616c65206d7573742062652061637469766520746f206d696e74204f63746f6044820152606401610434565b6106cc600880546001019055565b60006106d760085490565b90506106e33382610da8565b6106ed8184610dc2565b600954610334906001600160a01b03166001610847565b6000818152600260205260408120546001600160a01b0316806103345760405162461bcd60e51b815260206004820152602960248201527f4552433732313a206f776e657220717565727920666f72206e6f6e657869737460448201526832b73a103a37b5b2b760b91b6064820152608401610434565b60006001600160a01b0382166107e65760405162461bcd60e51b815260206004820152602a60248201527f4552433732313a2062616c616e636520717565727920666f7220746865207a65604482015269726f206164647265737360b01b6064820152608401610434565b506001600160a01b031660009081526003602052604090205490565b6007546001600160a01b0316331461082c5760405162461bcd60e51b815260040161043490611818565b6108366000610e4d565b565b6060600180546103499061178d565b610643338383610e9f565b61085c3383610b26565b6108785760405162461bcd60e51b8152600401610434906117c7565b61088484848484610f6d565b50505050565b606061089582610a9b565b6108fb5760405162461bcd60e51b815260206004820152603160248201527f45524337323155524953746f726167653a2055524920717565727920666f72206044820152703737b732bc34b9ba32b73a103a37b5b2b760791b6064820152608401610434565b600082815260066020526040812080546109149061178d565b80601f01602080910402602001604051908101604052809291908181526020018280546109409061178d565b801561098d5780601f106109625761010080835404028352916020019161098d565b820191906000526020600020905b81548152906001019060200180831161097057829003601f168201915b5050505050905060006109ab60408051602081019091526000815290565b905080516000036109bd575092915050565b8151156109ef5780826040516020016109d792919061184d565b60405160208183030381529060405292505050919050565b6109f884610fa0565b949350505050565b6007546001600160a01b03163314610a2a5760405162461bcd60e51b815260040161043490611818565b6001600160a01b038116610a8f5760405162461bcd60e51b815260206004820152602660248201527f4f776e61626c653a206e6577206f776e657220697320746865207a65726f206160448201526564647265737360d01b6064820152608401610434565b610a9881610e4d565b50565b6000908152600260205260409020546001600160a01b0316151590565b600081815260046020526040902080546001600160a01b0319166001600160a01b0384169081179091558190610aed82610704565b6001600160a01b03167f8c5be1e5ebec7d5bd14f71427d1e84f3dd0314c0f7b2291e5b200ac8c7c3b92560405160405180910390a45050565b6000610b3182610a9b565b610b925760405162461bcd60e51b815260206004820152602c60248201527f4552433732313a206f70657261746f7220717565727920666f72206e6f6e657860448201526b34b9ba32b73a103a37b5b2b760a11b6064820152608401610434565b6000610b9d83610704565b9050806001600160a01b0316846001600160a01b03161480610bd85750836001600160a01b0316610bcd846103cc565b6001600160a01b0316145b806109f857506001600160a01b0380821660009081526005602090815260408083209388168352929052205460ff166109f8565b826001600160a01b0316610c1f82610704565b6001600160a01b031614610c835760405162461bcd60e51b815260206004820152602560248201527f4552433732313a207472616e736665722066726f6d20696e636f72726563742060448201526437bbb732b960d91b6064820152608401610434565b6001600160a01b038216610ce55760405162461bcd60e51b8152602060048201526024808201527f4552433732313a207472616e7366657220746f20746865207a65726f206164646044820152637265737360e01b6064820152608401610434565b610cf0600082610ab8565b6001600160a01b0383166000908152600360205260408120805460019290610d19908490611892565b90915550506001600160a01b0382166000908152600360205260408120805460019290610d479084906118a9565b909155505060008181526002602052604080822080546001600160a01b0319166001600160a01b0386811691821790925591518493918716917fddf252ad1be2c89b69c2b068fc378daa952ba7f163c4a11628f55a4df523b3ef91a4505050565b610643828260405180602001604052806000815250611078565b610dcb82610a9b565b610e2e5760405162461bcd60e51b815260206004820152602e60248201527f45524337323155524953746f726167653a2055524920736574206f66206e6f6e60448201526d32bc34b9ba32b73a103a37b5b2b760911b6064820152608401610434565b60008281526006602090815260409091208251610569928401906113e0565b600780546001600160a01b038381166001600160a01b0319831681179093556040519116919082907f8be0079c531659141344cd1fd0a4f28419497f9722a3daafe3b4186f6b6457e090600090a35050565b816001600160a01b0316836001600160a01b031603610f005760405162461bcd60e51b815260206004820152601960248201527f4552433732313a20617070726f766520746f2063616c6c6572000000000000006044820152606401610434565b6001600160a01b03838116600081815260056020908152604080832094871680845294825291829020805460ff191686151590811790915591519182527f17307eab39ab6107e8899845ad3d59bd9653f200f220920489ca2b5937696c31910160405180910390a3505050565b610f78848484610c0c565b610f84848484846110ab565b6108845760405162461bcd60e51b8152600401610434906118c1565b6060610fab82610a9b565b61100f5760405162461bcd60e51b815260206004820152602f60248201527f4552433732314d657461646174613a2055524920717565727920666f72206e6f60448201526e3732bc34b9ba32b73a103a37b5b2b760891b6064820152608401610434565b600061102660408051602081019091526000815290565b905060008151116110465760405180602001604052806000815250611071565b80611050846111ac565b60405160200161106192919061184d565b6040516020818303038152906040525b9392505050565b61108283836112ad565b61108f60008484846110ab565b6105695760405162461bcd60e51b8152600401610434906118c1565b60006001600160a01b0384163b156111a157604051630a85bd0160e11b81526001600160a01b0385169063150b7a02906110ef903390899088908890600401611913565b6020604051808303816000875af192505050801561112a575060408051601f3d908101601f1916820190925261112791810190611950565b60015b611187573d808015611158576040519150601f19603f3d011682016040523d82523d6000602084013e61115d565b606091505b50805160000361117f5760405162461bcd60e51b8152600401610434906118c1565b805181602001fd5b6001600160e01b031916630a85bd0160e11b1490506109f8565b506001949350505050565b6060816000036111d35750506040805180820190915260018152600360fc1b602082015290565b8160005b81156111fd57806111e78161196d565b91506111f69050600a8361199c565b91506111d7565b60008167ffffffffffffffff811115611218576112186115b2565b6040519080825280601f01601f191660200182016040528015611242576020820181803683370190505b5090505b84156109f857611257600183611892565b9150611264600a866119b0565b61126f9060306118a9565b60f81b818381518110611284576112846119c4565b60200101906001600160f81b031916908160001a9053506112a6600a8661199c565b9450611246565b6001600160a01b0382166113035760405162461bcd60e51b815260206004820181905260248201527f4552433732313a206d696e7420746f20746865207a65726f20616464726573736044820152606401610434565b61130c81610a9b565b156113595760405162461bcd60e51b815260206004820152601c60248201527f4552433732313a20746f6b656e20616c7265616479206d696e746564000000006044820152606401610434565b6001600160a01b03821660009081526003602052604081208054600192906113829084906118a9565b909155505060008181526002602052604080822080546001600160a01b0319166001600160a01b03861690811790915590518392907fddf252ad1be2c89b69c2b068fc378daa952ba7f163c4a11628f55a4df523b3ef908290a45050565b8280546113ec9061178d565b90600052602060002090601f01602090048101928261140e5760008555611454565b82601f1061142757805160ff1916838001178555611454565b82800160010185558215611454579182015b82811115611454578251825591602001919060010190611439565b50611460929150611464565b5090565b5b808211156114605760008155600101611465565b6001600160e01b031981168114610a9857600080fd5b6000602082840312156114a157600080fd5b813561107181611479565b60005b838110156114c75781810151838201526020016114af565b838111156108845750506000910152565b600081518084526114f08160208601602086016114ac565b601f01601f19169290920160200192915050565b60208152600061107160208301846114d8565b60006020828403121561152957600080fd5b5035919050565b80356001600160a01b038116811461154757600080fd5b919050565b6000806040838503121561155f57600080fd5b61156883611530565b946020939093013593505050565b60008060006060848603121561158b57600080fd5b61159484611530565b92506115a260208501611530565b9150604084013590509250925092565b634e487b7160e01b600052604160045260246000fd5b600067ffffffffffffffff808411156115e3576115e36115b2565b604051601f8501601f19908116603f0116810190828211818310171561160b5761160b6115b2565b8160405280935085815286868601111561162457600080fd5b858560208301376000602087830101525050509392505050565b60006020828403121561165057600080fd5b813567ffffffffffffffff81111561166757600080fd5b8201601f8101841361167857600080fd5b6109f8848235602084016115c8565b60006020828403121561169957600080fd5b61107182611530565b600080604083850312156116b557600080fd5b6116be83611530565b9150602083013580151581146116d357600080fd5b809150509250929050565b600080600080608085870312156116f457600080fd5b6116fd85611530565b935061170b60208601611530565b925060408501359150606085013567ffffffffffffffff81111561172e57600080fd5b8501601f8101871361173f57600080fd5b61174e878235602084016115c8565b91505092959194509250565b6000806040838503121561176d57600080fd5b61177683611530565b915061178460208401611530565b90509250929050565b600181811c908216806117a157607f821691505b6020821081036117c157634e487b7160e01b600052602260045260246000fd5b50919050565b60208082526031908201527f4552433732313a207472616e736665722063616c6c6572206973206e6f74206f6040820152701ddb995c881b9bdc88185c1c1c9bdd9959607a1b606082015260800190565b6020808252818101527f4f776e61626c653a2063616c6c6572206973206e6f7420746865206f776e6572604082015260600190565b6000835161185f8184602088016114ac565b8351908301906118738183602088016114ac565b01949350505050565b634e487b7160e01b600052601160045260246000fd5b6000828210156118a4576118a461187c565b500390565b600082198211156118bc576118bc61187c565b500190565b60208082526032908201527f4552433732313a207472616e7366657220746f206e6f6e20455243373231526560408201527131b2b4bb32b91034b6b83632b6b2b73a32b960711b606082015260800190565b6001600160a01b0385811682528416602082015260408101839052608060608201819052600090611946908301846114d8565b9695505050505050565b60006020828403121561196257600080fd5b815161107181611479565b60006001820161197f5761197f61187c565b5060010190565b634e487b7160e01b600052601260045260246000fd5b6000826119ab576119ab611986565b500490565b6000826119bf576119bf611986565b500690565b634e487b7160e01b600052603260045260246000fdfea2646970667358221220dddf5c0016228c860609236155b4ca1a31cddec7bd73fa2115a4364f5bc718f364736f6c634300080d0033",
  "immutableReferences": {},
  "source": "// SPDX-License-Identifier: GPL-3.0\npragma solidity ^0.8.0;\n\nimport \"@openzeppelin/contracts/token/ERC721/ERC721.sol\";\nimport \"@openzeppelin/contracts/token/ERC721/extensions/ERC721URIStorage.sol\";\nimport \"@openzeppelin/contracts/access/Ownable.sol\";\nimport \"@openzeppelin/contracts/utils/Counters.sol\";\n\ncontract CoralPlayground is ERC721URIStorage, Ownable {\n    using Counters for Counters.Counter;\n    Counters.Counter private _tokenIds;\n    address contractAddress;\n    bool public saleIsActive = false;\n\n    constructor(address marketplaceAddress) ERC721(\"Coral Playground\", \"CORAL_PLAYGROUND\") {\n        contractAddress = marketplaceAddress;\n    }\n    \n    function withdraw() public onlyOwner {\n        uint balance = address(this).balance;\n        payable (msg.sender).transfer(balance);\n    }\n\n     /*\n    * Pause sale if active, make active if paused\n    */\n    function flipSaleState() public onlyOwner {\n        saleIsActive = !saleIsActive;\n    }\n\n    function createToken(string memory tokenURI) public returns (uint) {\n        require(saleIsActive, \"Sale must be active to mint Octo\");\n        \n        _tokenIds.increment();\n        uint256 newItemId = _tokenIds.current();\n\n        _safeMint(msg.sender, newItemId);\n        _setTokenURI(newItemId, tokenURI);\n        setApprovalForAll(contractAddress, true);\n        return newItemId;\n    }\n}",
  "sourcePath": "/Users/ash/Dropbox/Hackathon/coral_playground/contracts/CoralPlayground.sol",
  "compiler": {
    "name": "solc",
    "version": "0.8.13+commit.abaa5c0e.Emscripten.clang"
  },
  "schemaVersion": "3.4.3",
  "updatedAt": "2022-04-17T00:51:28.780Z",
  "networkType": "ethereum",
  "devdoc": {
    "kind": "dev",
    "methods": {
      "approve(address,uint256)": {
        "details": "See {IERC721-approve}."
      },
      "balanceOf(address)": {
        "details": "See {IERC721-balanceOf}."
      },
      "getApproved(uint256)": {
        "details": "See {IERC721-getApproved}."
      },
      "isApprovedForAll(address,address)": {
        "details": "See {IERC721-isApprovedForAll}."
      },
      "name()": {
        "details": "See {IERC721Metadata-name}."
      },
      "owner()": {
        "details": "Returns the address of the current owner."
      },
      "ownerOf(uint256)": {
        "details": "See {IERC721-ownerOf}."
      },
      "renounceOwnership()": {
        "details": "Leaves the contract without owner. It will not be possible to call `onlyOwner` functions anymore. Can only be called by the current owner. NOTE: Renouncing ownership will leave the contract without an owner, thereby removing any functionality that is only available to the owner."
      },
      "safeTransferFrom(address,address,uint256)": {
        "details": "See {IERC721-safeTransferFrom}."
      },
      "safeTransferFrom(address,address,uint256,bytes)": {
        "details": "See {IERC721-safeTransferFrom}."
      },
      "setApprovalForAll(address,bool)": {
        "details": "See {IERC721-setApprovalForAll}."
      },
      "supportsInterface(bytes4)": {
        "details": "See {IERC165-supportsInterface}."
      },
      "symbol()": {
        "details": "See {IERC721Metadata-symbol}."
      },
      "tokenURI(uint256)": {
        "details": "See {IERC721Metadata-tokenURI}."
      },
      "transferFrom(address,address,uint256)": {
        "details": "See {IERC721-transferFrom}."
      },
      "transferOwnership(address)": {
        "details": "Transfers ownership of the contract to a new account (`newOwner`). Can only be called by the current owner."
      }
    },
    "version": 1
  },
  "userdoc": {
    "kind": "user",
    "methods": {},
    "version": 1
  }
}